{
  "contractName": "SimpleStorage",
  "abi": [
    {
      "anonymous": false,
      "inputs": [
        {
          "indexed": false,
          "name": "oldData",
          "type": "uint256"
        },
        {
          "indexed": false,
          "name": "newData",
          "type": "uint256"
        }
      ],
      "name": "DataWillChange",
      "type": "event"
    },
    {
      "constant": false,
      "inputs": [
        {
          "name": "x",
          "type": "uint256"
        }
      ],
      "name": "set",
      "outputs": [],
      "payable": false,
      "stateMutability": "nonpayable",
      "type": "function"
    },
    {
      "constant": true,
      "inputs": [],
      "name": "get",
      "outputs": [
        {
          "name": "",
          "type": "uint256"
        }
      ],
      "payable": false,
      "stateMutability": "view",
      "type": "function"
    }
  ],
  "bytecode": "0x608060405234801561001057600080fd5b50610120806100206000396000f3006080604052600436106049576000357c0100000000000000000000000000000000000000000000000000000000900463ffffffff16806360fe47b114604e5780636d4ce63c146078575b600080fd5b348015605957600080fd5b5060766004803603810190808035906020019092919050505060a0565b005b348015608357600080fd5b50608a60eb565b6040518082815260200191505060405180910390f35b7fdb962a6cca364a840128df8e5263833bf2a796da440474a3be3d365d6ca7ad8360005482604051808381526020018281526020019250505060405180910390a18060008190555050565b600080549050905600a165627a7a72305820607b02a82f3bcadf1fd3b08dc9b54cc30342fe1dbcb50d706bce11379675a4df0029",
  "source": "pragma solidity ^0.4.24;\n\ncontract SimpleStorage {\n  uint storedData;\n  event DataWillChange(uint oldData, uint newData);\n\n  function set(uint x) public {\n    emit DataWillChange(storedData, x);\n    storedData = x;\n  }\n\n  function get() public view returns (uint) {\n    return storedData;\n  }\n}\n",
  "sourcePath": "/Users/timsmyr/www/chain-front/contracts/SimpleStorage.sol",
  "compiler": {
    "name": "solc",
    "version": "0.4.24+commit.e67f0147.Emscripten.clang"
  },
  "schemaVersion": "2.0.1",
  "updatedAt": "2018-12-20T14:32:44.348Z"
}