{
  "contractName": "TodoList",
  "abi": [
    {
      "constant": true,
      "inputs": [
        {
          "name": "",
          "type": "uint256"
        }
      ],
      "name": "todos",
      "outputs": [
        {
          "name": "text",
          "type": "string"
        },
        {
          "name": "removed",
          "type": "bool"
        }
      ],
      "payable": false,
      "stateMutability": "view",
      "type": "function"
    },
    {
      "anonymous": false,
      "inputs": [
        {
          "indexed": false,
          "name": "text",
          "type": "string"
        }
      ],
      "name": "added",
      "type": "event"
    },
    {
      "anonymous": false,
      "inputs": [
        {
          "indexed": false,
          "name": "id",
          "type": "uint256"
        }
      ],
      "name": "removed",
      "type": "event"
    },
    {
      "constant": false,
      "inputs": [
        {
          "name": "text",
          "type": "string"
        }
      ],
      "name": "addTodo",
      "outputs": [],
      "payable": false,
      "stateMutability": "nonpayable",
      "type": "function"
    },
    {
      "constant": false,
      "inputs": [
        {
          "name": "id",
          "type": "uint256"
        }
      ],
      "name": "removeTodo",
      "outputs": [],
      "payable": false,
      "stateMutability": "nonpayable",
      "type": "function"
    },
    {
      "constant": true,
      "inputs": [],
      "name": "numTodos",
      "outputs": [
        {
          "name": "",
          "type": "uint256"
        }
      ],
      "payable": false,
      "stateMutability": "view",
      "type": "function"
    }
  ],
  "bytecode": "0x608060405234801561001057600080fd5b50610525806100206000396000f300608060405260043610610062576000357c0100000000000000000000000000000000000000000000000000000000900463ffffffff1680633be3d70314610067578063942ea8451461009457806395ffebf5146100bf578063bc8bc2b414610128575b600080fd5b34801561007357600080fd5b50610092600480360381019080803590602001909291905050506101d9565b005b3480156100a057600080fd5b506100a961024c565b6040518082815260200191505060405180910390f35b3480156100cb57600080fd5b50610126600480360381019080803590602001908201803590602001908080601f0160208091040260200160405190810160405280939291908181526020018383808284378201915050505050509192919290505050610258565b005b34801561013457600080fd5b506101536004803603810190808035906020019092919050505061037c565b604051808060200183151515158152602001828103825284818151815260200191508051906020019080838360005b8381101561019d578082015181840152602081019050610182565b50505050905090810190601f1680156101ca5780820380516001836020036101000a031916815260200191505b50935050505060405180910390f35b60016000828154811015156101ea57fe5b906000526020600020906002020160010160006101000a81548160ff0219169083151502179055507f8255899d1c0dde4849fc90f8d53c56acf1a1fc199ce5930831c5fd9313e94c92816040518082815260200191505060405180910390a150565b60008080549050905090565b60006040805190810160405280838152602001600015158152509080600181540180825580915050906001820390600052602060002090600202016000909192909190915060008201518160000190805190602001906102b9929190610454565b5060208201518160010160006101000a81548160ff0219169083151502179055505050507f9d036948362ea1f595fe295fa175541e1e8c853284455f45d53a2c22118b208a816040518080602001828103825283818151815260200191508051906020019080838360005b8381101561033f578082015181840152602081019050610324565b50505050905090810190601f16801561036c5780820380516001836020036101000a031916815260200191505b509250505060405180910390a150565b60008181548110151561038b57fe5b9060005260206000209060020201600091509050806000018054600181600116156101000203166002900480601f0160208091040260200160405190810160405280929190818152602001828054600181600116156101000203166002900480156104375780601f1061040c57610100808354040283529160200191610437565b820191906000526020600020905b81548152906001019060200180831161041a57829003601f168201915b5050505050908060010160009054906101000a900460ff16905082565b828054600181600116156101000203166002900490600052602060002090601f016020900481019282601f1061049557805160ff19168380011785556104c3565b828001600101855582156104c3579182015b828111156104c25782518255916020019190600101906104a7565b5b5090506104d091906104d4565b5090565b6104f691905b808211156104f25760008160009055506001016104da565b5090565b905600a165627a7a723058206c58ed60f568a4f45cc56f2b96e314ae85568e8225de9c3fed6c05b85a0c14700029",
  "source": "pragma solidity ^0.4.24;\n\ncontract TodoList {\n  struct Todo {\n    string text;\n    bool removed;\n  }\n  Todo[] public todos;\n  event added(string text);\n  event removed(uint id);\n\n  function addTodo(string text) public {\n    todos.push(Todo(text, false));\n    emit added(text);\n  }\n\n  function removeTodo(uint id) public {\n    todos[id].removed = true;\n    emit removed(id);\n  }\n\n  function numTodos() public view returns (uint) {\n      return todos.length;\n  }\n}\n",
  "sourcePath": "/Users/timsmyr/www/chain-front/contracts/TodoList.sol",
  "compiler": {
    "name": "solc",
    "version": "0.4.24+commit.e67f0147.Emscripten.clang"
  },
  "schemaVersion": "2.0.1",
  "updatedAt": "2018-12-20T14:57:50.621Z"
}