{
  "contractName": "TodoList",
  "abi": [
    {
      "constant": true,
      "inputs": [
        {
          "name": "",
          "type": "uint256"
        }
      ],
      "name": "todos",
      "outputs": [
        {
          "name": "text",
          "type": "string"
        },
        {
          "name": "removed",
          "type": "bool"
        }
      ],
      "payable": false,
      "stateMutability": "view",
      "type": "function",
      "signature": "0xbc8bc2b4"
    },
    {
      "anonymous": false,
      "inputs": [
        {
          "indexed": false,
          "name": "text",
          "type": "string"
        }
      ],
      "name": "added",
      "type": "event",
      "signature": "0x9d036948362ea1f595fe295fa175541e1e8c853284455f45d53a2c22118b208a"
    },
    {
      "anonymous": false,
      "inputs": [
        {
          "indexed": false,
          "name": "id",
          "type": "uint256"
        }
      ],
      "name": "removed",
      "type": "event",
      "signature": "0x8255899d1c0dde4849fc90f8d53c56acf1a1fc199ce5930831c5fd9313e94c92"
    },
    {
      "constant": false,
      "inputs": [
        {
          "name": "text",
          "type": "string"
        }
      ],
      "name": "addTodo",
      "outputs": [],
      "payable": false,
      "stateMutability": "nonpayable",
      "type": "function",
      "signature": "0x95ffebf5"
    },
    {
      "constant": false,
      "inputs": [
        {
          "name": "id",
          "type": "uint256"
        }
      ],
      "name": "removeTodo",
      "outputs": [],
      "payable": false,
      "stateMutability": "nonpayable",
      "type": "function",
      "signature": "0x3be3d703"
    },
    {
      "constant": true,
      "inputs": [],
      "name": "numTodos",
      "outputs": [
        {
          "name": "",
          "type": "uint256"
        }
      ],
      "payable": false,
      "stateMutability": "view",
      "type": "function",
      "signature": "0x942ea845"
    }
  ],
  "bytecode": "0x608060405234801561001057600080fd5b506105a0806100206000396000f3fe608060405260043610610062576000357c0100000000000000000000000000000000000000000000000000000000900463ffffffff1680633be3d70314610067578063942ea845146100a257806395ffebf5146100cd578063bc8bc2b414610195575b600080fd5b34801561007357600080fd5b506100a06004803603602081101561008a57600080fd5b8101908080359060200190929190505050610254565b005b3480156100ae57600080fd5b506100b76102c7565b6040518082815260200191505060405180910390f35b3480156100d957600080fd5b50610193600480360360208110156100f057600080fd5b810190808035906020019064010000000081111561010d57600080fd5b82018360208201111561011f57600080fd5b8035906020019184600183028401116401000000008311171561014157600080fd5b91908080601f016020809104026020016040519081016040528093929190818152602001838380828437600081840152601f19601f8201169050808301925050505050505091929192905050506102d3565b005b3480156101a157600080fd5b506101ce600480360360208110156101b857600080fd5b81019080803590602001909291905050506103f7565b604051808060200183151515158152602001828103825284818151815260200191508051906020019080838360005b838110156102185780820151818401526020810190506101fd565b50505050905090810190601f1680156102455780820380516001836020036101000a031916815260200191505b50935050505060405180910390f35b600160008281548110151561026557fe5b906000526020600020906002020160010160006101000a81548160ff0219169083151502179055507f8255899d1c0dde4849fc90f8d53c56acf1a1fc199ce5930831c5fd9313e94c92816040518082815260200191505060405180910390a150565b60008080549050905090565b60006040805190810160405280838152602001600015158152509080600181540180825580915050906001820390600052602060002090600202016000909192909190915060008201518160000190805190602001906103349291906104cf565b5060208201518160010160006101000a81548160ff0219169083151502179055505050507f9d036948362ea1f595fe295fa175541e1e8c853284455f45d53a2c22118b208a816040518080602001828103825283818151815260200191508051906020019080838360005b838110156103ba57808201518184015260208101905061039f565b50505050905090810190601f1680156103e75780820380516001836020036101000a031916815260200191505b509250505060405180910390a150565b60008181548110151561040657fe5b9060005260206000209060020201600091509050806000018054600181600116156101000203166002900480601f0160208091040260200160405190810160405280929190818152602001828054600181600116156101000203166002900480156104b25780601f10610487576101008083540402835291602001916104b2565b820191906000526020600020905b81548152906001019060200180831161049557829003601f168201915b5050505050908060010160009054906101000a900460ff16905082565b828054600181600116156101000203166002900490600052602060002090601f016020900481019282601f1061051057805160ff191683800117855561053e565b8280016001018555821561053e579182015b8281111561053d578251825591602001919060010190610522565b5b50905061054b919061054f565b5090565b61057191905b8082111561056d576000816000905550600101610555565b5090565b9056fea165627a7a72305820bed824197ae42cef55d02c7a9b28b21327991428fcfd4e2b302e71d7990a23170029",
  "source": "pragma solidity 0.5.0;\n\ncontract TodoList {\n  struct Todo {\n    string text;\n    bool removed;\n  }\n  Todo[] public todos;\n  event added(string text);\n  event removed(uint id);\n\n  function addTodo(string memory text) public {\n    todos.push(Todo(text, false));\n    emit added(text);\n  }\n\n  function removeTodo(uint id) public {\n    todos[id].removed = true;\n    emit removed(id);\n  }\n\n  function numTodos() public view returns (uint) {\n      return todos.length;\n  }\n}\n",
  "sourcePath": "/Users/timsmyr/www/blockchain-playground/contracts/TodoList.sol",
  "compiler": {
    "name": "solc",
    "version": "0.5.0+commit.1d4f565a.Emscripten.clang"
  },
  "schemaVersion": "3.0.0",
  "updatedAt": "2018-12-26T15:03:58.384Z",
  "devdoc": {
    "methods": {}
  },
  "userdoc": {
    "methods": {}
  }
}